{
  "_format": "hh-sol-artifact-1",
  "contractName": "TophatTurtleCollectables",
  "sourceName": "contracts/NFT.sol",
  "abi": [
    {
      "inputs": [],
      "stateMutability": "nonpayable",
      "type": "constructor"
    },
    {
      "anonymous": false,
      "inputs": [
        {
          "indexed": true,
          "internalType": "address",
          "name": "owner",
          "type": "address"
        },
        {
          "indexed": true,
          "internalType": "address",
          "name": "approved",
          "type": "address"
        },
        {
          "indexed": true,
          "internalType": "uint256",
          "name": "tokenId",
          "type": "uint256"
        }
      ],
      "name": "Approval",
      "type": "event"
    },
    {
      "anonymous": false,
      "inputs": [
        {
          "indexed": true,
          "internalType": "address",
          "name": "owner",
          "type": "address"
        },
        {
          "indexed": true,
          "internalType": "address",
          "name": "operator",
          "type": "address"
        },
        {
          "indexed": false,
          "internalType": "bool",
          "name": "approved",
          "type": "bool"
        }
      ],
      "name": "ApprovalForAll",
      "type": "event"
    },
    {
      "anonymous": false,
      "inputs": [
        {
          "indexed": true,
          "internalType": "address",
          "name": "from",
          "type": "address"
        },
        {
          "indexed": true,
          "internalType": "address",
          "name": "to",
          "type": "address"
        },
        {
          "indexed": true,
          "internalType": "uint256",
          "name": "tokenId",
          "type": "uint256"
        }
      ],
      "name": "Transfer",
      "type": "event"
    },
    {
      "anonymous": false,
      "inputs": [
        {
          "indexed": true,
          "internalType": "address",
          "name": "author",
          "type": "address"
        },
        {
          "indexed": false,
          "internalType": "uint256",
          "name": "tokenId",
          "type": "uint256"
        }
      ],
      "name": "ValueChanged",
      "type": "event"
    },
    {
      "inputs": [
        {
          "internalType": "address",
          "name": "to",
          "type": "address"
        },
        {
          "internalType": "uint256",
          "name": "tokenId",
          "type": "uint256"
        }
      ],
      "name": "approve",
      "outputs": [],
      "stateMutability": "nonpayable",
      "type": "function"
    },
    {
      "inputs": [
        {
          "internalType": "address",
          "name": "owner",
          "type": "address"
        }
      ],
      "name": "balanceOf",
      "outputs": [
        {
          "internalType": "uint256",
          "name": "",
          "type": "uint256"
        }
      ],
      "stateMutability": "view",
      "type": "function"
    },
    {
      "inputs": [
        {
          "internalType": "address",
          "name": "recipient",
          "type": "address"
        },
        {
          "internalType": "string",
          "name": "uri",
          "type": "string"
        }
      ],
      "name": "createNFT",
      "outputs": [
        {
          "internalType": "uint256",
          "name": "",
          "type": "uint256"
        }
      ],
      "stateMutability": "nonpayable",
      "type": "function"
    },
    {
      "inputs": [
        {
          "internalType": "uint256",
          "name": "tokenId",
          "type": "uint256"
        }
      ],
      "name": "getApproved",
      "outputs": [
        {
          "internalType": "address",
          "name": "",
          "type": "address"
        }
      ],
      "stateMutability": "view",
      "type": "function"
    },
    {
      "inputs": [
        {
          "internalType": "address",
          "name": "owner",
          "type": "address"
        },
        {
          "internalType": "address",
          "name": "operator",
          "type": "address"
        }
      ],
      "name": "isApprovedForAll",
      "outputs": [
        {
          "internalType": "bool",
          "name": "",
          "type": "bool"
        }
      ],
      "stateMutability": "view",
      "type": "function"
    },
    {
      "inputs": [],
      "name": "name",
      "outputs": [
        {
          "internalType": "string",
          "name": "",
          "type": "string"
        }
      ],
      "stateMutability": "view",
      "type": "function"
    },
    {
      "inputs": [
        {
          "internalType": "uint256",
          "name": "tokenId",
          "type": "uint256"
        }
      ],
      "name": "ownerOf",
      "outputs": [
        {
          "internalType": "address",
          "name": "",
          "type": "address"
        }
      ],
      "stateMutability": "view",
      "type": "function"
    },
    {
      "inputs": [
        {
          "internalType": "address",
          "name": "from",
          "type": "address"
        },
        {
          "internalType": "address",
          "name": "to",
          "type": "address"
        },
        {
          "internalType": "uint256",
          "name": "tokenId",
          "type": "uint256"
        }
      ],
      "name": "safeTransferFrom",
      "outputs": [],
      "stateMutability": "nonpayable",
      "type": "function"
    },
    {
      "inputs": [
        {
          "internalType": "address",
          "name": "from",
          "type": "address"
        },
        {
          "internalType": "address",
          "name": "to",
          "type": "address"
        },
        {
          "internalType": "uint256",
          "name": "tokenId",
          "type": "uint256"
        },
        {
          "internalType": "bytes",
          "name": "_data",
          "type": "bytes"
        }
      ],
      "name": "safeTransferFrom",
      "outputs": [],
      "stateMutability": "nonpayable",
      "type": "function"
    },
    {
      "inputs": [
        {
          "internalType": "address",
          "name": "operator",
          "type": "address"
        },
        {
          "internalType": "bool",
          "name": "approved",
          "type": "bool"
        }
      ],
      "name": "setApprovalForAll",
      "outputs": [],
      "stateMutability": "nonpayable",
      "type": "function"
    },
    {
      "inputs": [
        {
          "internalType": "bytes4",
          "name": "interfaceId",
          "type": "bytes4"
        }
      ],
      "name": "supportsInterface",
      "outputs": [
        {
          "internalType": "bool",
          "name": "",
          "type": "bool"
        }
      ],
      "stateMutability": "view",
      "type": "function"
    },
    {
      "inputs": [],
      "name": "symbol",
      "outputs": [
        {
          "internalType": "string",
          "name": "",
          "type": "string"
        }
      ],
      "stateMutability": "view",
      "type": "function"
    },
    {
      "inputs": [
        {
          "internalType": "uint256",
          "name": "tokenId",
          "type": "uint256"
        }
      ],
      "name": "tokenURI",
      "outputs": [
        {
          "internalType": "string",
          "name": "",
          "type": "string"
        }
      ],
      "stateMutability": "view",
      "type": "function"
    },
    {
      "inputs": [
        {
          "internalType": "address",
          "name": "from",
          "type": "address"
        },
        {
          "internalType": "address",
          "name": "to",
          "type": "address"
        },
        {
          "internalType": "uint256",
          "name": "tokenId",
          "type": "uint256"
        }
      ],
      "name": "transferFrom",
      "outputs": [],
      "stateMutability": "nonpayable",
      "type": "function"
    }
  ],
  "bytecode": "0x60806040523480156200001157600080fd5b50604080518082018252601881527f546f70686174547572746c65436f6c6c65637461626c6573000000000000000060208083019182528351808501909452600384526254544360e81b908401528151919291620000729160009162000091565b5080516200008890600190602084019062000091565b50505062000174565b8280546200009f9062000137565b90600052602060002090601f016020900481019282620000c357600085556200010e565b82601f10620000de57805160ff19168380011785556200010e565b828001600101855582156200010e579182015b828111156200010e578251825591602001919060010190620000f1565b506200011c92915062000120565b5090565b5b808211156200011c576000815560010162000121565b600181811c908216806200014c57607f821691505b602082108114156200016e57634e487b7160e01b600052602260045260246000fd5b50919050565b61170d80620001846000396000f3fe608060405234801561001057600080fd5b50600436106100ea5760003560e01c806370a082311161008c578063a561403311610066578063a5614033146101e1578063b88d4fde146101f4578063c87b56dd14610207578063e985e9c51461021a57600080fd5b806370a08231146101a557806395d89b41146101c6578063a22cb465146101ce57600080fd5b8063095ea7b3116100c8578063095ea7b31461015757806323b872dd1461016c57806342842e0e1461017f5780636352211e1461019257600080fd5b806301ffc9a7146100ef57806306fdde0314610117578063081812fc1461012c575b600080fd5b6101026100fd366004611405565b610256565b60405190151581526020015b60405180910390f35b61011f6102a8565b60405161010e91906114ed565b61013f61013a36600461143d565b61033a565b6040516001600160a01b03909116815260200161010e565b61016a6101653660046113dc565b6103c7565b005b61016a61017a36600461128f565b6104dd565b61016a61018d36600461128f565b61050e565b61013f6101a036600461143d565b610529565b6101b86101b3366004611243565b6105a0565b60405190815260200161010e565b61011f610627565b61016a6101dc366004611343565b610636565b6101b86101ef36600461137d565b6106fb565b61016a6102023660046112ca565b610768565b61011f61021536600461143d565b6107a0565b61010261022836600461125d565b6001600160a01b03918216600090815260056020908152604080832093909416825291909152205460ff1690565b60006001600160e01b031982166380ac58cd60e01b148061028757506001600160e01b03198216635b5e139f60e01b145b806102a257506301ffc9a760e01b6001600160e01b03198316145b92915050565b6060600080546102b790611612565b80601f01602080910402602001604051908101604052809291908181526020018280546102e390611612565b80156103305780601f1061030557610100808354040283529160200191610330565b820191906000526020600020905b81548152906001019060200180831161031357829003601f168201915b5050505050905090565b600061034582610917565b6103ab5760405162461bcd60e51b815260206004820152602c60248201527f4552433732313a20617070726f76656420717565727920666f72206e6f6e657860448201526b34b9ba32b73a103a37b5b2b760a11b60648201526084015b60405180910390fd5b506000908152600460205260409020546001600160a01b031690565b60006103d282610529565b9050806001600160a01b0316836001600160a01b031614156104405760405162461bcd60e51b815260206004820152602160248201527f4552433732313a20617070726f76616c20746f2063757272656e74206f776e656044820152603960f91b60648201526084016103a2565b336001600160a01b038216148061045c575061045c8133610228565b6104ce5760405162461bcd60e51b815260206004820152603860248201527f4552433732313a20617070726f76652063616c6c6572206973206e6f74206f7760448201527f6e6572206e6f7220617070726f76656420666f7220616c6c000000000000000060648201526084016103a2565b6104d88383610934565b505050565b6104e733826109a2565b6105035760405162461bcd60e51b81526004016103a290611552565b6104d8838383610a88565b6104d883838360405180602001604052806000815250610768565b6000818152600260205260408120546001600160a01b0316806102a25760405162461bcd60e51b815260206004820152602960248201527f4552433732313a206f776e657220717565727920666f72206e6f6e657869737460448201526832b73a103a37b5b2b760b91b60648201526084016103a2565b60006001600160a01b03821661060b5760405162461bcd60e51b815260206004820152602a60248201527f4552433732313a2062616c616e636520717565727920666f7220746865207a65604482015269726f206164647265737360b01b60648201526084016103a2565b506001600160a01b031660009081526003602052604090205490565b6060600180546102b790611612565b6001600160a01b03821633141561068f5760405162461bcd60e51b815260206004820152601960248201527f4552433732313a20617070726f766520746f2063616c6c65720000000000000060448201526064016103a2565b3360008181526005602090815260408083206001600160a01b03871680855290835292819020805460ff191686151590811790915590519081529192917f17307eab39ab6107e8899845ad3d59bd9653f200f220920489ca2b5937696c31910160405180910390a35050565b600061070b600780546001019055565b600061071660075490565b90506107228482610c28565b61072c8184610d5b565b60405181815233907fe2b64d6eb95e02b6354c9dad0f0b75f05c8659bc5f2a0f91bc457fc27c55c6889060200160405180910390a29392505050565b61077233836109a2565b61078e5760405162461bcd60e51b81526004016103a290611552565b61079a84848484610de6565b50505050565b60606107ab82610917565b6108115760405162461bcd60e51b815260206004820152603160248201527f45524337323155524953746f726167653a2055524920717565727920666f72206044820152703737b732bc34b9ba32b73a103a37b5b2b760791b60648201526084016103a2565b6000828152600660205260408120805461082a90611612565b80601f016020809104026020016040519081016040528092919081815260200182805461085690611612565b80156108a35780601f10610878576101008083540402835291602001916108a3565b820191906000526020600020905b81548152906001019060200180831161088657829003601f168201915b5050505050905060006108c160408051602081019091526000815290565b90508051600014156108d4575092915050565b8151156109065780826040516020016108ee929190611481565b60405160208183030381529060405292505050919050565b61090f84610e19565b949350505050565b6000908152600260205260409020546001600160a01b0316151590565b600081815260046020526040902080546001600160a01b0319166001600160a01b038416908117909155819061096982610529565b6001600160a01b03167f8c5be1e5ebec7d5bd14f71427d1e84f3dd0314c0f7b2291e5b200ac8c7c3b92560405160405180910390a45050565b60006109ad82610917565b610a0e5760405162461bcd60e51b815260206004820152602c60248201527f4552433732313a206f70657261746f7220717565727920666f72206e6f6e657860448201526b34b9ba32b73a103a37b5b2b760a11b60648201526084016103a2565b6000610a1983610529565b9050806001600160a01b0316846001600160a01b03161480610a545750836001600160a01b0316610a498461033a565b6001600160a01b0316145b8061090f57506001600160a01b0380821660009081526005602090815260408083209388168352929052205460ff1661090f565b826001600160a01b0316610a9b82610529565b6001600160a01b031614610b035760405162461bcd60e51b815260206004820152602960248201527f4552433732313a207472616e73666572206f6620746f6b656e2074686174206960448201526839903737ba1037bbb760b91b60648201526084016103a2565b6001600160a01b038216610b655760405162461bcd60e51b8152602060048201526024808201527f4552433732313a207472616e7366657220746f20746865207a65726f206164646044820152637265737360e01b60648201526084016103a2565b610b70600082610934565b6001600160a01b0383166000908152600360205260408120805460019290610b999084906115cf565b90915550506001600160a01b0382166000908152600360205260408120805460019290610bc79084906115a3565b909155505060008181526002602052604080822080546001600160a01b0319166001600160a01b0386811691821790925591518493918716917fddf252ad1be2c89b69c2b068fc378daa952ba7f163c4a11628f55a4df523b3ef91a4505050565b6001600160a01b038216610c7e5760405162461bcd60e51b815260206004820181905260248201527f4552433732313a206d696e7420746f20746865207a65726f206164647265737360448201526064016103a2565b610c8781610917565b15610cd45760405162461bcd60e51b815260206004820152601c60248201527f4552433732313a20746f6b656e20616c7265616479206d696e7465640000000060448201526064016103a2565b6001600160a01b0382166000908152600360205260408120805460019290610cfd9084906115a3565b909155505060008181526002602052604080822080546001600160a01b0319166001600160a01b03861690811790915590518392907fddf252ad1be2c89b69c2b068fc378daa952ba7f163c4a11628f55a4df523b3ef908290a45050565b610d6482610917565b610dc75760405162461bcd60e51b815260206004820152602e60248201527f45524337323155524953746f726167653a2055524920736574206f66206e6f6e60448201526d32bc34b9ba32b73a103a37b5b2b760911b60648201526084016103a2565b600082815260066020908152604090912082516104d892840190611118565b610df1848484610a88565b610dfd84848484610ef1565b61079a5760405162461bcd60e51b81526004016103a290611500565b6060610e2482610917565b610e885760405162461bcd60e51b815260206004820152602f60248201527f4552433732314d657461646174613a2055524920717565727920666f72206e6f60448201526e3732bc34b9ba32b73a103a37b5b2b760891b60648201526084016103a2565b6000610e9f60408051602081019091526000815290565b90506000815111610ebf5760405180602001604052806000815250610eea565b80610ec984610ffe565b604051602001610eda929190611481565b6040516020818303038152906040525b9392505050565b60006001600160a01b0384163b15610ff357604051630a85bd0160e11b81526001600160a01b0385169063150b7a0290610f359033908990889088906004016114b0565b602060405180830381600087803b158015610f4f57600080fd5b505af1925050508015610f7f575060408051601f3d908101601f19168201909252610f7c91810190611421565b60015b610fd9573d808015610fad576040519150601f19603f3d011682016040523d82523d6000602084013e610fb2565b606091505b508051610fd15760405162461bcd60e51b81526004016103a290611500565b805181602001fd5b6001600160e01b031916630a85bd0160e11b14905061090f565b506001949350505050565b6060816110225750506040805180820190915260018152600360fc1b602082015290565b8160005b811561104c57806110368161164d565b91506110459050600a836115bb565b9150611026565b60008167ffffffffffffffff81111561107557634e487b7160e01b600052604160045260246000fd5b6040519080825280601f01601f19166020018201604052801561109f576020820181803683370190505b5090505b841561090f576110b46001836115cf565b91506110c1600a86611668565b6110cc9060306115a3565b60f81b8183815181106110ef57634e487b7160e01b600052603260045260246000fd5b60200101906001600160f81b031916908160001a905350611111600a866115bb565b94506110a3565b82805461112490611612565b90600052602060002090601f016020900481019282611146576000855561118c565b82601f1061115f57805160ff191683800117855561118c565b8280016001018555821561118c579182015b8281111561118c578251825591602001919060010190611171565b5061119892915061119c565b5090565b5b80821115611198576000815560010161119d565b600067ffffffffffffffff808411156111cc576111cc6116a8565b604051601f8501601f19908116603f011681019082821181831017156111f4576111f46116a8565b8160405280935085815286868601111561120d57600080fd5b858560208301376000602087830101525050509392505050565b80356001600160a01b038116811461123e57600080fd5b919050565b600060208284031215611254578081fd5b610eea82611227565b6000806040838503121561126f578081fd5b61127883611227565b915061128660208401611227565b90509250929050565b6000806000606084860312156112a3578081fd5b6112ac84611227565b92506112ba60208501611227565b9150604084013590509250925092565b600080600080608085870312156112df578081fd5b6112e885611227565b93506112f660208601611227565b925060408501359150606085013567ffffffffffffffff811115611318578182fd5b8501601f81018713611328578182fd5b611337878235602084016111b1565b91505092959194509250565b60008060408385031215611355578182fd5b61135e83611227565b915060208301358015158114611372578182fd5b809150509250929050565b6000806040838503121561138f578182fd5b61139883611227565b9150602083013567ffffffffffffffff8111156113b3578182fd5b8301601f810185136113c3578182fd5b6113d2858235602084016111b1565b9150509250929050565b600080604083850312156113ee578182fd5b6113f783611227565b946020939093013593505050565b600060208284031215611416578081fd5b8135610eea816116be565b600060208284031215611432578081fd5b8151610eea816116be565b60006020828403121561144e578081fd5b5035919050565b6000815180845261146d8160208601602086016115e6565b601f01601f19169290920160200192915050565b600083516114938184602088016115e6565b8351908301906114a78183602088016115e6565b01949350505050565b6001600160a01b03858116825284166020820152604081018390526080606082018190526000906114e390830184611455565b9695505050505050565b602081526000610eea6020830184611455565b60208082526032908201527f4552433732313a207472616e7366657220746f206e6f6e20455243373231526560408201527131b2b4bb32b91034b6b83632b6b2b73a32b960711b606082015260800190565b60208082526031908201527f4552433732313a207472616e736665722063616c6c6572206973206e6f74206f6040820152701ddb995c881b9bdc88185c1c1c9bdd9959607a1b606082015260800190565b600082198211156115b6576115b661167c565b500190565b6000826115ca576115ca611692565b500490565b6000828210156115e1576115e161167c565b500390565b60005b838110156116015781810151838201526020016115e9565b8381111561079a5750506000910152565b600181811c9082168061162657607f821691505b6020821081141561164757634e487b7160e01b600052602260045260246000fd5b50919050565b60006000198214156116615761166161167c565b5060010190565b60008261167757611677611692565b500690565b634e487b7160e01b600052601160045260246000fd5b634e487b7160e01b600052601260045260246000fd5b634e487b7160e01b600052604160045260246000fd5b6001600160e01b0319811681146116d457600080fd5b5056fea26469706673582212203fb0743afda9a2f4f8b7a62c64cf69051fb3c0a3a9365e7106a697942f345cc164736f6c63430008040033",
  "linkReferences": {},
  "deployedLinkReferences": {}
}